:020000040000fa
:080000000002040000000000f2
:020000040000fa
:100400000f8020000ebf22000e01880000000000b7
:100410000c00070020a920000100200011000700a7
:10042000000020000000e000020032000000020096
:100430000000000078090200000000000040da001f
:100440000000fe004440a900400120000000e00040
:100450000300320000002000a00188004440a800f2
:100460000000060091018800800078000000eb0089
:1004700015003700e280400032a0b4009101ba00bc
:10048000e280400032a0b4009102ba00e280400055
:1004900032a0b4000002eb00472bde00f507b200eb
:1004a000602ce10004003a000059eb008301e900f0
:1004b000fdff3e00040037006128e100010032002a
:1004c0000082eb00040007001101ba000200e00006
:1004d000e8ff3a00000006003159ba008301e90044
:1004e0000c0032002159ba008301e90008003200f3
:1004f0000400e00003003a00e280400032a0b400b3
:10050000f5ff370011d9ba008301e900faff3a007c
:100510008100e800e180400032a0b4000000060045
:100520000040da000000fe0003f0a200889fbe0039
:100530008a9fbe008c1f7800550107005c013300c4
:100540006450e1004f0032006420e10052003200ac
:1005500003826c0007003b000905d0000306d000b1
:10056000820f54000c065d000200390002003200c8
:1005700089017800030678008582550004003d005b
:100580000003fd008103fd008502ea008b85420027
:10059000840f720002003b0060001000e080180031
:1005a0006011b8000005eb007a28e1000a0039006c
:1005b00006007800c75ddd00f707b2008780750090
:1005c0002d003700828171000a017800610560000a
:1005d0008180d1000080d3008502e900f9ff3b0053
:1005e000060440008784480002003b0060041400b9
:1005f000e0841c000988a300070032008a81710092
:1006000082817100610164008904d1000884d300f3
:100610008b05e800170037000978a30013003a00a3
:100620000b00e000130034008b05e90008044400cf
:1006300089844c000a4474000978a3000d003a0034
:100640000b00e000070034008b05e90008044400bb
:1006500089844c0001003a000b0020000978a300b7
:10066000f7ff32000001eb000200370082817100c9
:100670000a017800cb0007000cf0a70001f0a000f1
:10068000140137006420e10002003a00838f6c00ff
:10069000140133000801be000200be000d01370046
:1006a0000001eb00480007000400320002002000b7
:1006b00003f8230001f0a6009cff070000000600dd
:1006c000889fbe008a9fbe008c1f7800f000070044
:1006d000f700330003866c006450e1002e00320006
:1006e0006420e100330032006150e1002f0032004d
:1006f0006120e1003100320085855500eb07b00034
:100700000900200008042000050037000804440008
:1007100089844c000a0031000603430087834b00a4
:100720000001530081815b00f8ff33000203be002b
:100730000800a0000804440089844c00f6ff39003a
:10074000c639dd0083017300010032001300200070
:100750008904d1000884d3000998a3000500320061
:100760000800a7000300a0008904d1000884d3007a
:100770008b05e8008904d1000884d3000001eb0058
:100780000281d2008700070001f0a1000cf0a70051
:1007900001f0a000cf0037006420e100d10032005a
:1007a0000801be000200be00f7ff37006120e10033
:1007b000cc0032006000b800f3ff370000002000da
:1007c00001f82700f0ff3700889fbe008a9fbe0017
:1007d0000003be0099000700850578008281520061
:1007e000020020006220e10004003a00f307b1009b
:1007f000040035007718e100040035000600be0053
:10080000140037006000b8000f003700f50f20001b
:10081000faff2f008502d1000a85d3008301e90089
:10082000fcff3b008184620000046500890f7400b6
:10083000f2ff32008582ea000a85ea0081846200c4
:10084000000465005700070007f0a70001f0a000b2
:100850000081eb000200e0004f05be004f04be0027
:100860000000060014002000d50037000001be0083
:10087000720007000470a70003f0a10003f8a300b2
:1008800013003a006509b10010003200090035007c
:100890006928e10002003500010028000000050081
:1008a00000004000818048008502e900fcff3a001a
:1008b00000000600f88f4200050035008100d100dd
:1008c0000080d3008502e800fcff3a00000006002b
:1008d0008000eb0000000500889fbe008a9fbe00dc
:1008e000010578000100e0000400350008003c002c
:1008f0000000e0002000320005003700600010001a
:10090000e080180002003b0001f02c001a003700c4
:100910000004be006011b8006b0920000982cf00fe
:10092000020039000882cf000441b0006942520041
:100930000e00320008003b008281710061016400fa
:100940008904d1000884d3008b05e8000442e80044
:10095000f9ff3a00050037000804440089844c0080
:100960008b05e9000442e900fbff3a000d00070097
:100970000af0a70001f0a0004f05be004f04be0022
:10098000000006000001eb008fff070004003200aa
:100990000200200003f8230001f0a700e2fe070098
:1009a0000000060081002000618055000b003d0022
:1009b0000b00200061fe2f000100e1001d0034004b
:1009c00082817100610164008904d1000884d30030
:1009d0000000e800faff3a007100200061006400a6
:1009e000030070000200600009003200610444004e
:1009f000e0844c000988a500050032008b05e80062
:100a00006808e10002003a008904d1000884d3009c
:100a1000f20f20000258e10005003d00c75ddd0037
:100a2000f907b20089807500080078000000060010
:100a30000bf827008b00780000000500c70ade00d5
:100a4000f107b200f50fb20008003200e1cf42001a
:100a5000020032000170a00024000500810f700028
:100a6000010032000408050044000500810f7000f9
:100a700002003a00140005008502e9000000400071
:100a800081c04800fcff3b000170a000240005006d
:100a90000004be00e9ff07000003be000405be001d
:100aa0000200be00e5ff0700844f7500000006004d
:100ab0000200be006450e100050036006420e10041
:100ac000020036000968a30001003a000800be00d9
:100ad0000160a0004f0678004f05be004f04be0025
:100ae00000000600f0ff2f00f1ff2700f9ff37009c
:100af000889fbe008a9fbe008c1f7800e4ff07001d
:100b0000ebff330003866c006450e10024003200e8
:100b10006420e100270032006150e1002200320031
:100b20006120e100210032008b854200eb07b1001b
:100b30000134b800003ab8000804420089844a0031
:100b4000013ab8000030b8008880400009014a002e
:100b50000400330000004000818048000201490089
:100b60008b05e900c909dd00830170000100320036
:100b700013002000c814de004814dd004709de0021
:100b80001200b200c808de000884700085ff07006c
:100b900001f0a1000cf0a70001f0a000cdff37008c
:100ba0006120e100cfff32000801be000200be005c
:100bb000f7ff37006150e100fcff3a00c9ff370042
:100bc000889fbe008a9fbe00841f7800b0ff070088
:100bd0004f00780011003300f0ff2f00838f6c006e
:100be00006003b00040565000a00a7000800370066
:100bf00009f0a6001000200008003700820f540002
:100c0000838f5c00030039001000200001003e00cb
:100c10000000200009f0a7000000ea004f05be0018
:0c0c20004f04be000000e00000000600d1
:020000040000fa
:0200000401f009
:04000800ffff0000f6
:020000040000fa
:0200000401f009
:04000c0078ff000079
:020000040000fa
:0200000401f009
:040010007dff000070
:020000040000fa
:0200000401f009
:040014007fff00006a
:020000040000fa
:1000080090020000900200009002000090020000a0
:100018009002000090020000900200009002000090
:100028009002000090020000900200009002000080
:100038009002000090020000900200009002000070
:020000040000fa
:020000040000fa
:100c2c0020200000302000000020000025000000e3
:100c3c00303100003233000034350000363700000c
:080c4c0038390000000000002f
:020000040000fa
:100c54000000fa00f182a900f1a2a9000000eb0053
:100c640000178800f582a900f5a2a9000000eb0096
:100c74002017880000352c00010020001a0207000c
:100c840080c3b3001b000700c0c0b30019000700f5
:100c940060c0b3001700070010c0b30015000700c0
:100ca4000080fa00000006000000fa0010c0b30043
:100cb4001000070080a92300010020000a02070099
:100cc4000080fa00000006000000fa00f582a80087
:100cd400401f20000100200003020700f582a90044
:100ce400401f200001002000ff0107000080fa00df
:100cf400000006000200fa00004f7800f5a2a900e7
:100d04002117800000f02f00008060002017880069
:100d14009e80fb0020178000008070002017880050
:100d2400e9ff07000080fa00000006000200fa0054
:100d3400004f7800f5a2a8002117800000f02f00d2
:100d440000806000201788009e80fb002017800030
:100d54000080700020178800dbff07000080fa0085
:100d6400000006000200fa00000f780004003700bb
:100d74001e007800104078001e0fe800ebff07000b
:100d84001e007800104078000004e000f8ff3a00ec
:100d94000080fa00000006000400fa00004f78000a
:100da4001e4078000004e00003003d0080cab30048
:100db4009e4f100006003600f0cbb3009e4f10008b
:100dc4000800360080ceb3009e4f100005003e00a0
:100dd4001e407800c7ff070010002000100798008d
:100de400020037000000eb00100798001e0090007e
:100df4000080fa00000006001e00fa00100f9800a0
:100e0400210f98006000b80010079800210798008f
:100e14000040eb00004f780066004700e1612800c5
:100e24000a00090031587800b000b1001e08900093
:100e3400cf80de00a7fe0700500f9800610f9800d6
:100e44001e0890000000e00007003d0002002000a2
:100e5400037824005e089000ee089000b2fd0700bd
:100e6400500f9800610f98002e089000cf80de008c
:100e740098fe0700300f9800410f98002e0890004c
:100e84000000e00007003d00020020000378240079
:100e94003e089000ce089000a3fd0700300f980094
:100ea400410f98003e099000ce0990005e08900022
:100eb400ee08900001fe070002002000832c2400ad
:100ec4000aff07001007980021079800020020007d
:100ed400832c24001e009000ae00900060fe0700ea
:100ee4000000e00001003500060037001e009000fd
:100ef400ae009000e9fd0700100798002107980054
:100f0400050037001e009000ae0090009cfe070014
:100f140010079800210798001e009000ae00900072
:100f240051fe0700004f7800606128008dff070024
:100f3400a1c0b3001e407800c800070000c2b3007f
:100f44007aff07001e4078006f000700b061280098
:100f540084ff07000080fa00000006000400fa0085
:100f6400204798000040eb00004f78000040eb0061
:100f7400004f78000300370000c0eb006bff070050
:100f84001e4fe8001e00fb00ae4090008180fb0075
:100f9400810f5000f8ff35002e409000004f78007c
:100fa40003003700f0c5b30060ff07001e4fe800e0
:100fb40090c0b3009e4f1000faff34000080fa0086
:100fc400000006001200fa0030079800410798005c
:100fd4006000b80010079800210798000040eb005b
:100fe400004f78003e009000cf80de0039fe0700fd
:100ff40070079800010f98003e0090000000e00088
:1010040007003d0002002000037824007e009000c9
:101014008e08900044fd070070079800010f9800a7
:101024004e009000cf80de002afe07005007980093
:10103400610798004e0090000000e00007003d00aa
:1010440002002000037824005e009000ee0090006f
:1010540035fd070050079800610798005e01900075
:10106400ee0190007e0090008e08900093fd070032
:101074001007980021079800020020004333240041
:101084001e009000ae009000f5fd07000000e00097
:1010940001003500060037001e009000ae009000ed
:1010a4007efd07001007980021079800050037000f
:1010b4001e009000ae00900031fe0700100798005b
:1010c400210798001e009000ae009000e6fd070086
:1010d400004f78006061280022ff070021c1b3009f
:1010e4001e4078005d00070000c2b3000fff070038
:1010f4001e40780004000700f0cdb3000bff07008a
:101104000080fa00000006000e00fa00404f98002c
:10111400e06128000a000900305f7800be00b100d9
:101124004e489000e94f50000a003e0000c2b30050
:10113400fefe070000c2b300fcfe07004e4890000c
:101144000080fb000e00400010407800f7fe07000e
:1011540040003700ce48900030c6b30080cf500026
:1011640016003e0000c2b300f0fe07004e48900097
:101174000080fb00a2002000110009000280d800ba
:101184000080fb000e00400010407800e7fe0700de
:101194004e4890000080fb00a200200011000900ce
:1011a4000280d8008000fd000080fb000e0040009b
:1011b40010407800ddfe0700260037004e489000fe
:1011c4000080fb0042062000110009000280d800c4
:1011d4000080fb000e00400010407800d3fe0700a2
:1011e4004e4890000080fb004206200011000900d8
:1011f4000280d8008000fd000080fb00a2002000d7
:10120400110009000280d8000080fb000e0040009d
:1012140010407800c5fe07004e4890000080fb0097
:1012240042062000110009000280d8008000fd0061
:101234000080fb00a2002000110009000280d800f9
:101244008000fd000080fb000e004000104078008c
:10125400b6fe07000080fa00000006000400fa0051
:1012640020479800314798000040eb00004f780079
:101274002e4090000081fb003e4090000080fb0067
:101284006a00b900800f510014003d0010c0b30083
:10129400004f78000d0037002e4090000081fb00c5
:1012a4003e4090008080fb001e80fb000088b90057
:1012b400800f510004003d001e4078000040e9000a
:1012c40026ff0700070037001e4fe800a0c0b30048
:1012d4009e4f1000f0ff360002003700a0c0b3009c
:1012e4001eff07000080fa00000006000200fa005a
:1012f400309b2000000f7800c802a900c822a90072
:10130400c842a900c862a900c882a900cc02a800ea
:10131400cc22a900cc42a800cc62a900cc82a800af
:10132400ccc2bf006140600000c0ea0061406000c0
:1013340061416000c12c200091407800e0cfb300ef
:1013440000c0600002407000cce2b700ccc2bf0015
:101354000080fb000000d1006140600000c0ea0092
:10136400614060006140600000414000c12c2000e9
:1013740091407800d0cfb30000c0600002407000fc
:10138400cce2b700ccc2bf000080fb004200de000c
:101394006140600000c0ea0061406000614060009c
:1013a4004201dd00c12c200091407800b0cfb30091
:1013b40000c0600002407000cce2b700ccc2bf00a5
:1013c4000080fb004300de006140600000c0ea00d2
:1013d40061406000614060004301dd00c12c2000d9
:1013e4009140780070cfb30000c0600002407000ec
:1013f400cce2b700ccc2bf000080fb004400de009a
:101404006140600000c0ea0061406000614060002b
:101414004401dd00c12c200091407800f0ceb300df
:1014240000c0600002407000cce2b70000902000d1
:10143400d10320002c000700b9ff37000000fa0098
:1014440011e1a9001021a90010c1a9000111200077
:1014540091407800f0ccb30000c0600010e1b70008
:101464000000eb0030088800f0342c00600888008d
:1014740011e1a8000080fa00000006000000fa0054
:10148400411820009140780080cfb30000c0600074
:1014940084e1b700f0002000100c8800f000200068
:1014a400000c88008461a900f0002000100c880062
:1014b400411820009140780080cfb30000c0600044
:1014c4006040b30084e1b7000080fa000000060029
:1014d4000200fa00000f78001e007800000c88005b
:0814e4000080fa000000060080
:020000040000fa
:1014ec00f03fb1000180b10006003500ee030900a9
:1014fc0000000000403fb1000180b100fbff3d0047
:10150c001000b000203fb000020035000080090040
:08151c000000000000000600c1
:020000040000fa
:0415240000000000c3
:00000001FF
